{
  "address": "0x5FbDB2315678afecb367f032d93F642f64180aa3",
  "abi": [
    {
      "inputs": [],
      "stateMutability": "nonpayable",
      "type": "constructor"
    },
    {
      "inputs": [
        {
          "internalType": "string",
          "name": "_productName",
          "type": "string"
        },
        {
          "internalType": "string",
          "name": "_location",
          "type": "string"
        }
      ],
      "name": "addProduct",
      "outputs": [],
      "stateMutability": "nonpayable",
      "type": "function"
    },
    {
      "inputs": [
        {
          "internalType": "uint256",
          "name": "_productId",
          "type": "uint256"
        }
      ],
      "name": "getProduct",
      "outputs": [
        {
          "internalType": "address",
          "name": "producer",
          "type": "address"
        },
        {
          "internalType": "string",
          "name": "productName",
          "type": "string"
        },
        {
          "internalType": "uint256",
          "name": "productionDate",
          "type": "uint256"
        },
        {
          "internalType": "string",
          "name": "location",
          "type": "string"
        }
      ],
      "stateMutability": "view",
      "type": "function"
    },
    {
      "inputs": [],
      "name": "productCount",
      "outputs": [
        {
          "internalType": "uint256",
          "name": "",
          "type": "uint256"
        }
      ],
      "stateMutability": "view",
      "type": "function"
    },
    {
      "inputs": [
        {
          "internalType": "uint256",
          "name": "",
          "type": "uint256"
        }
      ],
      "name": "products",
      "outputs": [
        {
          "internalType": "address",
          "name": "producer",
          "type": "address"
        },
        {
          "internalType": "string",
          "name": "productName",
          "type": "string"
        },
        {
          "internalType": "uint256",
          "name": "productionDate",
          "type": "uint256"
        },
        {
          "internalType": "string",
          "name": "location",
          "type": "string"
        }
      ],
      "stateMutability": "view",
      "type": "function"
    }
  ],
  "transactionHash": "0x1c3eec9d68662487daa5f24df14797e15a31c17593d24173d3d313b66d236334",
  "args": [],
  "numDeployments": 1,
  "solcInputHash": "72f1a1a994bb97c920b22f35131668f0",
  "bytecode": "0x608060405234801561001057600080fd5b506000600181905550610cc9806100286000396000f3fe608060405234801561001057600080fd5b506004361061004c5760003560e01c80637acc0b2014610051578063b9db15b414610084578063ca2efb55146100b7578063e0f6ef87146100d3575b600080fd5b61006b600480360381019061006691906105aa565b6100f1565b60405161007b94939291906106b7565b60405180910390f35b61009e600480360381019061009991906105aa565b610251565b6040516100ae94939291906106b7565b60405180910390f35b6100d160048036038101906100cc919061083f565b610473565b005b6100db61055a565b6040516100e891906108b7565b60405180910390f35b60006020528060005260406000206000915090508060000160009054906101000a900473ffffffffffffffffffffffffffffffffffffffff169080600101805461013a90610901565b80601f016020809104026020016040519081016040528092919081815260200182805461016690610901565b80156101b35780601f10610188576101008083540402835291602001916101b3565b820191906000526020600020905b81548152906001019060200180831161019657829003601f168201915b5050505050908060020154908060030180546101ce90610901565b80601f01602080910402602001604051908101604052809291908181526020018280546101fa90610901565b80156102475780601f1061021c57610100808354040283529160200191610247565b820191906000526020600020905b81548152906001019060200180831161022a57829003601f168201915b5050505050905084565b6000606060006060600154851115801561026b5750600085115b6102aa576040517f08c379a00000000000000000000000000000000000000000000000000000000081526004016102a19061097e565b60405180910390fd5b60008060008781526020019081526020016000206040518060800160405290816000820160009054906101000a900473ffffffffffffffffffffffffffffffffffffffff1673ffffffffffffffffffffffffffffffffffffffff1673ffffffffffffffffffffffffffffffffffffffff16815260200160018201805461032f90610901565b80601f016020809104026020016040519081016040528092919081815260200182805461035b90610901565b80156103a85780601f1061037d576101008083540402835291602001916103a8565b820191906000526020600020905b81548152906001019060200180831161038b57829003601f168201915b50505050508152602001600282015481526020016003820180546103cb90610901565b80601f01602080910402602001604051908101604052809291908181526020018280546103f790610901565b80156104445780601f1061041957610100808354040283529160200191610444565b820191906000526020600020905b81548152906001019060200180831161042757829003601f168201915b505050505081525050905080600001518160200151826040015183606001519450945094509450509193509193565b60016000815480929190610486906109cd565b919050555060405180608001604052803373ffffffffffffffffffffffffffffffffffffffff16815260200183815260200142815260200182815250600080600154815260200190815260200160002060008201518160000160006101000a81548173ffffffffffffffffffffffffffffffffffffffff021916908373ffffffffffffffffffffffffffffffffffffffff16021790555060208201518160010190816105329190610bc1565b506040820151816002015560608201518160030190816105529190610bc1565b509050505050565b60015481565b6000604051905090565b600080fd5b600080fd5b6000819050919050565b61058781610574565b811461059257600080fd5b50565b6000813590506105a48161057e565b92915050565b6000602082840312156105c0576105bf61056a565b5b60006105ce84828501610595565b91505092915050565b600073ffffffffffffffffffffffffffffffffffffffff82169050919050565b6000610602826105d7565b9050919050565b610612816105f7565b82525050565b600081519050919050565b600082825260208201905092915050565b60005b83811015610652578082015181840152602081019050610637565b60008484015250505050565b6000601f19601f8301169050919050565b600061067a82610618565b6106848185610623565b9350610694818560208601610634565b61069d8161065e565b840191505092915050565b6106b181610574565b82525050565b60006080820190506106cc6000830187610609565b81810360208301526106de818661066f565b90506106ed60408301856106a8565b81810360608301526106ff818461066f565b905095945050505050565b600080fd5b600080fd5b7f4e487b7100000000000000000000000000000000000000000000000000000000600052604160045260246000fd5b61074c8261065e565b810181811067ffffffffffffffff8211171561076b5761076a610714565b5b80604052505050565b600061077e610560565b905061078a8282610743565b919050565b600067ffffffffffffffff8211156107aa576107a9610714565b5b6107b38261065e565b9050602081019050919050565b82818337600083830152505050565b60006107e26107dd8461078f565b610774565b9050828152602081018484840111156107fe576107fd61070f565b5b6108098482856107c0565b509392505050565b600082601f8301126108265761082561070a565b5b81356108368482602086016107cf565b91505092915050565b600080604083850312156108565761085561056a565b5b600083013567ffffffffffffffff8111156108745761087361056f565b5b61088085828601610811565b925050602083013567ffffffffffffffff8111156108a1576108a061056f565b5b6108ad85828601610811565b9150509250929050565b60006020820190506108cc60008301846106a8565b92915050565b7f4e487b7100000000000000000000000000000000000000000000000000000000600052602260045260246000fd5b6000600282049050600182168061091957607f821691505b60208210810361092c5761092b6108d2565b5b50919050565b7f50726f6475637420494420646f6573206e6f7420657869737400000000000000600082015250565b6000610968601983610623565b915061097382610932565b602082019050919050565b600060208201905081810360008301526109978161095b565b9050919050565b7f4e487b7100000000000000000000000000000000000000000000000000000000600052601160045260246000fd5b60006109d882610574565b91507fffffffffffffffffffffffffffffffffffffffffffffffffffffffffffffffff8203610a0a57610a0961099e565b5b600182019050919050565b60008190508160005260206000209050919050565b60006020601f8301049050919050565b600082821b905092915050565b600060088302610a777fffffffffffffffffffffffffffffffffffffffffffffffffffffffffffffffff82610a3a565b610a818683610a3a565b95508019841693508086168417925050509392505050565b6000819050919050565b6000610abe610ab9610ab484610574565b610a99565b610574565b9050919050565b6000819050919050565b610ad883610aa3565b610aec610ae482610ac5565b848454610a47565b825550505050565b600090565b610b01610af4565b610b0c818484610acf565b505050565b5b81811015610b3057610b25600082610af9565b600181019050610b12565b5050565b601f821115610b7557610b4681610a15565b610b4f84610a2a565b81016020851015610b5e578190505b610b72610b6a85610a2a565b830182610b11565b50505b505050565b600082821c905092915050565b6000610b9860001984600802610b7a565b1980831691505092915050565b6000610bb18383610b87565b9150826002028217905092915050565b610bca82610618565b67ffffffffffffffff811115610be357610be2610714565b5b610bed8254610901565b610bf8828285610b34565b600060209050601f831160018114610c2b5760008415610c19578287015190505b610c238582610ba5565b865550610c8b565b601f198416610c3986610a15565b60005b82811015610c6157848901518255600182019150602085019450602081019050610c3c565b86831015610c7e5784890151610c7a601f891682610b87565b8355505b6001600288020188555050505b50505050505056fea2646970667358221220e45f2dd5b496856daa3bca6e34f999fc5ed9ac573fb1b1dcf9230612b837388764736f6c63430008130033",
  "devdoc": {
    "kind": "dev",
    "methods": {},
    "version": 1
  },
  "userdoc": {
    "kind": "user",
    "methods": {},
    "version": 1
  },
  "storageLayout": {
    "storage": [
      {
        "astId": 15,
        "contract": "contracts/ProductTracker.sol:productTracker",
        "label": "products",
        "offset": 0,
        "slot": "0",
        "type": "t_mapping(t_uint256,t_struct(Product)10_storage)"
      },
      {
        "astId": 17,
        "contract": "contracts/ProductTracker.sol:productTracker",
        "label": "productCount",
        "offset": 0,
        "slot": "1",
        "type": "t_uint256"
      }
    ],
    "types": {
      "t_address": {
        "encoding": "inplace",
        "label": "address",
        "numberOfBytes": "20"
      },
      "t_mapping(t_uint256,t_struct(Product)10_storage)": {
        "encoding": "mapping",
        "key": "t_uint256",
        "label": "mapping(uint256 => struct productTracker.Product)",
        "numberOfBytes": "32",
        "value": "t_struct(Product)10_storage"
      },
      "t_string_storage": {
        "encoding": "bytes",
        "label": "string",
        "numberOfBytes": "32"
      },
      "t_struct(Product)10_storage": {
        "encoding": "inplace",
        "label": "struct productTracker.Product",
        "members": [
          {
            "astId": 3,
            "contract": "contracts/ProductTracker.sol:productTracker",
            "label": "producer",
            "offset": 0,
            "slot": "0",
            "type": "t_address"
          },
          {
            "astId": 5,
            "contract": "contracts/ProductTracker.sol:productTracker",
            "label": "productName",
            "offset": 0,
            "slot": "1",
            "type": "t_string_storage"
          },
          {
            "astId": 7,
            "contract": "contracts/ProductTracker.sol:productTracker",
            "label": "productionDate",
            "offset": 0,
            "slot": "2",
            "type": "t_uint256"
          },
          {
            "astId": 9,
            "contract": "contracts/ProductTracker.sol:productTracker",
            "label": "location",
            "offset": 0,
            "slot": "3",
            "type": "t_string_storage"
          }
        ],
        "numberOfBytes": "128"
      },
      "t_uint256": {
        "encoding": "inplace",
        "label": "uint256",
        "numberOfBytes": "32"
      }
    }
  }
}