{
  "address": "0x2407f08Cb58126AE556d5C78f6b145982331f45b",
  "abi": [
    {
      "inputs": [],
      "stateMutability": "nonpayable",
      "type": "constructor"
    },
    {
      "anonymous": false,
      "inputs": [
        {
          "indexed": true,
          "internalType": "address",
          "name": "creator",
          "type": "address"
        },
        {
          "indexed": false,
          "internalType": "string",
          "name": "productName",
          "type": "string"
        },
        {
          "indexed": false,
          "internalType": "uint256",
          "name": "productCode",
          "type": "uint256"
        },
        {
          "indexed": false,
          "internalType": "string",
          "name": "tag",
          "type": "string"
        }
      ],
      "name": "ProductAdded",
      "type": "event"
    },
    {
      "anonymous": false,
      "inputs": [
        {
          "indexed": false,
          "internalType": "uint256",
          "name": "productCode",
          "type": "uint256"
        },
        {
          "indexed": false,
          "internalType": "string",
          "name": "newProductName",
          "type": "string"
        },
        {
          "indexed": false,
          "internalType": "string",
          "name": "newTag",
          "type": "string"
        }
      ],
      "name": "ProductModified",
      "type": "event"
    },
    {
      "anonymous": false,
      "inputs": [
        {
          "indexed": false,
          "internalType": "uint256",
          "name": "productCode",
          "type": "uint256"
        }
      ],
      "name": "ProductRemoved",
      "type": "event"
    },
    {
      "inputs": [
        {
          "internalType": "string",
          "name": "_productName",
          "type": "string"
        },
        {
          "internalType": "uint256",
          "name": "_productCode",
          "type": "uint256"
        },
        {
          "internalType": "string",
          "name": "_tag",
          "type": "string"
        }
      ],
      "name": "addProduct",
      "outputs": [],
      "stateMutability": "nonpayable",
      "type": "function"
    },
    {
      "inputs": [
        {
          "internalType": "uint256",
          "name": "_productCode",
          "type": "uint256"
        }
      ],
      "name": "getProduct",
      "outputs": [
        {
          "internalType": "address",
          "name": "creator",
          "type": "address"
        },
        {
          "internalType": "string",
          "name": "productName",
          "type": "string"
        },
        {
          "internalType": "uint256",
          "name": "entryDate",
          "type": "uint256"
        },
        {
          "internalType": "string",
          "name": "tag",
          "type": "string"
        }
      ],
      "stateMutability": "view",
      "type": "function"
    },
    {
      "inputs": [],
      "name": "getProductCount",
      "outputs": [
        {
          "internalType": "uint256",
          "name": "",
          "type": "uint256"
        }
      ],
      "stateMutability": "view",
      "type": "function"
    },
    {
      "inputs": [
        {
          "internalType": "uint256",
          "name": "_productCode",
          "type": "uint256"
        },
        {
          "internalType": "string",
          "name": "_newName",
          "type": "string"
        },
        {
          "internalType": "string",
          "name": "_newTag",
          "type": "string"
        }
      ],
      "name": "modifyProduct",
      "outputs": [],
      "stateMutability": "nonpayable",
      "type": "function"
    },
    {
      "inputs": [],
      "name": "owner",
      "outputs": [
        {
          "internalType": "address",
          "name": "",
          "type": "address"
        }
      ],
      "stateMutability": "view",
      "type": "function"
    },
    {
      "inputs": [],
      "name": "productCount",
      "outputs": [
        {
          "internalType": "uint256",
          "name": "",
          "type": "uint256"
        }
      ],
      "stateMutability": "view",
      "type": "function"
    },
    {
      "inputs": [
        {
          "internalType": "uint256",
          "name": "",
          "type": "uint256"
        }
      ],
      "name": "products",
      "outputs": [
        {
          "internalType": "address",
          "name": "creator",
          "type": "address"
        },
        {
          "internalType": "string",
          "name": "productName",
          "type": "string"
        },
        {
          "internalType": "uint256",
          "name": "productCode",
          "type": "uint256"
        },
        {
          "internalType": "uint256",
          "name": "entryDate",
          "type": "uint256"
        },
        {
          "internalType": "string",
          "name": "tag",
          "type": "string"
        }
      ],
      "stateMutability": "view",
      "type": "function"
    },
    {
      "inputs": [
        {
          "internalType": "uint256",
          "name": "_productCode",
          "type": "uint256"
        }
      ],
      "name": "removeProduct",
      "outputs": [],
      "stateMutability": "nonpayable",
      "type": "function"
    }
  ],
  "transactionHash": "0xe9fbc09ea31348f01efcecea582ec1cdad06a74278bdb89ed431219d33a69ca9",
  "args": [],
  "numDeployments": 10,
  "solcInputHash": "3304e1c163b63a5a2043ee2af9fcb5d0",
  "bytecode": "0x608060405234801561001057600080fd5b5033600260006101000a81548173ffffffffffffffffffffffffffffffffffffffff021916908373ffffffffffffffffffffffffffffffffffffffff1602179055506000600181905550611704806100696000396000f3fe608060405234801561001057600080fd5b50600436106100885760003560e01c80638da5cb5b1161005b5780638da5cb5b146101175780638f29695a14610135578063b9db15b414610151578063e0f6ef871461018457610088565b80633e95bf871461008d5780634a348da9146100a95780635ee95cae146100c75780637acc0b20146100e3575b600080fd5b6100a760048036038101906100a29190610e14565b6101a2565b005b6100b16102f4565b6040516100be9190610eae565b60405180910390f35b6100e160048036038101906100dc9190610ec9565b6102fe565b005b6100fd60048036038101906100f89190610ec9565b610643565b60405161010e959493929190610fb6565b60405180910390f35b61011f6107a9565b60405161012c9190611017565b60405180910390f35b61014f600480360381019061014a9190611032565b6107cf565b005b61016b60048036038101906101669190610ec9565b6109ff565b60405161017b94939291906110bd565b60405180910390f35b61018c610c21565b6040516101999190610eae565b60405180910390f35b600260009054906101000a900473ffffffffffffffffffffffffffffffffffffffff1673ffffffffffffffffffffffffffffffffffffffff163373ffffffffffffffffffffffffffffffffffffffff1614610232576040517f08c379a000000000000000000000000000000000000000000000000000000000815260040161022990611182565b60405180910390fd5b60008060008581526020019081526020016000209050600081600201540361028f576040517f08c379a000000000000000000000000000000000000000000000000000000000815260040161028690611214565b60405180910390fd5b828160010190816102a09190611440565b50818160040190816102b29190611440565b507f928ae9220f8f5e1cc782bdf3e6e7dd046e0746fa0bca2976fda8e54ca6a63fa58484846040516102e693929190611512565b60405180910390a150505050565b6000600154905090565b600260009054906101000a900473ffffffffffffffffffffffffffffffffffffffff1673ffffffffffffffffffffffffffffffffffffffff163373ffffffffffffffffffffffffffffffffffffffff161461038e576040517f08c379a000000000000000000000000000000000000000000000000000000000815260040161038590611182565b60405180910390fd5b60008060008381526020019081526020016000206040518060a00160405290816000820160009054906101000a900473ffffffffffffffffffffffffffffffffffffffff1673ffffffffffffffffffffffffffffffffffffffff1673ffffffffffffffffffffffffffffffffffffffff16815260200160018201805461041390611263565b80601f016020809104026020016040519081016040528092919081815260200182805461043f90611263565b801561048c5780601f106104615761010080835404028352916020019161048c565b820191906000526020600020905b81548152906001019060200180831161046f57829003601f168201915b5050505050815260200160028201548152602001600382015481526020016004820180546104b990611263565b80601f01602080910402602001604051908101604052809291908181526020018280546104e590611263565b80156105325780601f1061050757610100808354040283529160200191610532565b820191906000526020600020905b81548152906001019060200180831161051557829003601f168201915b50505050508152505090506000816040015103610584576040517f08c379a000000000000000000000000000000000000000000000000000000000815260040161057b90611214565b60405180910390fd5b600080838152602001908152602001600020600080820160006101000a81549073ffffffffffffffffffffffffffffffffffffffff02191690556001820160006105ce9190610c27565b600282016000905560038201600090556004820160006105ee9190610c27565b50506001600081548092919061060390611586565b91905055507f07015631cff457b5b13492c2045e70c6305a0a4aa773e432e79abbe2cf52c1eb826040516106379190610eae565b60405180910390a15050565b60006020528060005260406000206000915090508060000160009054906101000a900473ffffffffffffffffffffffffffffffffffffffff169080600101805461068c90611263565b80601f01602080910402602001604051908101604052809291908181526020018280546106b890611263565b80156107055780601f106106da57610100808354040283529160200191610705565b820191906000526020600020905b8154815290600101906020018083116106e857829003601f168201915b50505050509080600201549080600301549080600401805461072690611263565b80601f016020809104026020016040519081016040528092919081815260200182805461075290611263565b801561079f5780601f106107745761010080835404028352916020019161079f565b820191906000526020600020905b81548152906001019060200180831161078257829003601f168201915b5050505050905085565b600260009054906101000a900473ffffffffffffffffffffffffffffffffffffffff1681565b600260009054906101000a900473ffffffffffffffffffffffffffffffffffffffff1673ffffffffffffffffffffffffffffffffffffffff163373ffffffffffffffffffffffffffffffffffffffff161461085f576040517f08c379a000000000000000000000000000000000000000000000000000000000815260040161085690611182565b60405180910390fd5b600080600084815260200190815260200160002060020154146108b7576040517f08c379a00000000000000000000000000000000000000000000000000000000081526004016108ae90611621565b60405180910390fd5b6040518060a001604052803373ffffffffffffffffffffffffffffffffffffffff1681526020018481526020018381526020014281526020018281525060008084815260200190815260200160002060008201518160000160006101000a81548173ffffffffffffffffffffffffffffffffffffffff021916908373ffffffffffffffffffffffffffffffffffffffff16021790555060208201518160010190816109629190611440565b506040820151816002015560608201518160030155608082015181600401908161098c9190611440565b50905050600160008154809291906109a390611641565b91905055503373ffffffffffffffffffffffffffffffffffffffff167ff8a92676a2558d89502144f6fbc1ab03813affb1142cd33aa4aff9effbc6f6c58484846040516109f293929190611689565b60405180910390a2505050565b600060606000606060008060008781526020019081526020016000206040518060a00160405290816000820160009054906101000a900473ffffffffffffffffffffffffffffffffffffffff1673ffffffffffffffffffffffffffffffffffffffff1673ffffffffffffffffffffffffffffffffffffffff168152602001600182018054610a8c90611263565b80601f0160208091040260200160405190810160405280929190818152602001828054610ab890611263565b8015610b055780601f10610ada57610100808354040283529160200191610b05565b820191906000526020600020905b815481529060010190602001808311610ae857829003601f168201915b505050505081526020016002820154815260200160038201548152602001600482018054610b3290611263565b80601f0160208091040260200160405190810160405280929190818152602001828054610b5e90611263565b8015610bab5780601f10610b8057610100808354040283529160200191610bab565b820191906000526020600020905b815481529060010190602001808311610b8e57829003601f168201915b50505050508152505090506000816040015103610bfd576040517f08c379a0000000000000000000000000000000000000000000000000000000008152600401610bf490611214565b60405180910390fd5b80600001518160200151826060015183608001519450945094509450509193509193565b60015481565b508054610c3390611263565b6000825580601f10610c455750610c64565b601f016020900490600052602060002090810190610c639190610c67565b5b50565b5b80821115610c80576000816000905550600101610c68565b5090565b6000604051905090565b600080fd5b600080fd5b6000819050919050565b610cab81610c98565b8114610cb657600080fd5b50565b600081359050610cc881610ca2565b92915050565b600080fd5b600080fd5b6000601f19601f8301169050919050565b7f4e487b7100000000000000000000000000000000000000000000000000000000600052604160045260246000fd5b610d2182610cd8565b810181811067ffffffffffffffff82111715610d4057610d3f610ce9565b5b80604052505050565b6000610d53610c84565b9050610d5f8282610d18565b919050565b600067ffffffffffffffff821115610d7f57610d7e610ce9565b5b610d8882610cd8565b9050602081019050919050565b82818337600083830152505050565b6000610db7610db284610d64565b610d49565b905082815260208101848484011115610dd357610dd2610cd3565b5b610dde848285610d95565b509392505050565b600082601f830112610dfb57610dfa610cce565b5b8135610e0b848260208601610da4565b91505092915050565b600080600060608486031215610e2d57610e2c610c8e565b5b6000610e3b86828701610cb9565b935050602084013567ffffffffffffffff811115610e5c57610e5b610c93565b5b610e6886828701610de6565b925050604084013567ffffffffffffffff811115610e8957610e88610c93565b5b610e9586828701610de6565b9150509250925092565b610ea881610c98565b82525050565b6000602082019050610ec36000830184610e9f565b92915050565b600060208284031215610edf57610ede610c8e565b5b6000610eed84828501610cb9565b91505092915050565b600073ffffffffffffffffffffffffffffffffffffffff82169050919050565b6000610f2182610ef6565b9050919050565b610f3181610f16565b82525050565b600081519050919050565b600082825260208201905092915050565b60005b83811015610f71578082015181840152602081019050610f56565b60008484015250505050565b6000610f8882610f37565b610f928185610f42565b9350610fa2818560208601610f53565b610fab81610cd8565b840191505092915050565b600060a082019050610fcb6000830188610f28565b8181036020830152610fdd8187610f7d565b9050610fec6040830186610e9f565b610ff96060830185610e9f565b818103608083015261100b8184610f7d565b90509695505050505050565b600060208201905061102c6000830184610f28565b92915050565b60008060006060848603121561104b5761104a610c8e565b5b600084013567ffffffffffffffff81111561106957611068610c93565b5b61107586828701610de6565b935050602061108686828701610cb9565b925050604084013567ffffffffffffffff8111156110a7576110a6610c93565b5b6110b386828701610de6565b9150509250925092565b60006080820190506110d26000830187610f28565b81810360208301526110e48186610f7d565b90506110f36040830185610e9f565b81810360608301526111058184610f7d565b905095945050505050565b7f4f6e6c7920746865206f776e65722063616e20706572666f726d20746869732060008201527f616374696f6e0000000000000000000000000000000000000000000000000000602082015250565b600061116c602683610f42565b915061117782611110565b604082019050919050565b6000602082019050818103600083015261119b8161115f565b9050919050565b7f50726f647563742077697468207468697320636f646520646f6573206e6f742060008201527f6578697374000000000000000000000000000000000000000000000000000000602082015250565b60006111fe602583610f42565b9150611209826111a2565b604082019050919050565b6000602082019050818103600083015261122d816111f1565b9050919050565b7f4e487b7100000000000000000000000000000000000000000000000000000000600052602260045260246000fd5b6000600282049050600182168061127b57607f821691505b60208210810361128e5761128d611234565b5b50919050565b60008190508160005260206000209050919050565b60006020601f8301049050919050565b600082821b905092915050565b6000600883026112f67fffffffffffffffffffffffffffffffffffffffffffffffffffffffffffffffff826112b9565b61130086836112b9565b95508019841693508086168417925050509392505050565b6000819050919050565b600061133d61133861133384610c98565b611318565b610c98565b9050919050565b6000819050919050565b61135783611322565b61136b61136382611344565b8484546112c6565b825550505050565b600090565b611380611373565b61138b81848461134e565b505050565b5b818110156113af576113a4600082611378565b600181019050611391565b5050565b601f8211156113f4576113c581611294565b6113ce846112a9565b810160208510156113dd578190505b6113f16113e9856112a9565b830182611390565b50505b505050565b600082821c905092915050565b6000611417600019846008026113f9565b1980831691505092915050565b60006114308383611406565b9150826002028217905092915050565b61144982610f37565b67ffffffffffffffff81111561146257611461610ce9565b5b61146c8254611263565b6114778282856113b3565b600060209050601f8311600181146114aa5760008415611498578287015190505b6114a28582611424565b86555061150a565b601f1984166114b886611294565b60005b828110156114e0578489015182556001820191506020850194506020810190506114bb565b868310156114fd57848901516114f9601f891682611406565b8355505b6001600288020188555050505b505050505050565b60006060820190506115276000830186610e9f565b81810360208301526115398185610f7d565b9050818103604083015261154d8184610f7d565b9050949350505050565b7f4e487b7100000000000000000000000000000000000000000000000000000000600052601160045260246000fd5b600061159182610c98565b9150600082036115a4576115a3611557565b5b600182039050919050565b7f50726f647563742077697468207468697320636f646520616c7265616479206560008201527f7869737473000000000000000000000000000000000000000000000000000000602082015250565b600061160b602583610f42565b9150611616826115af565b604082019050919050565b6000602082019050818103600083015261163a816115fe565b9050919050565b600061164c82610c98565b91507fffffffffffffffffffffffffffffffffffffffffffffffffffffffffffffffff820361167e5761167d611557565b5b600182019050919050565b600060608201905081810360008301526116a38186610f7d565b90506116b26020830185610e9f565b81810360408301526116c48184610f7d565b905094935050505056fea2646970667358221220f21b680729cd32dee9669d9d5fc00792045ebdf458a27293b7975105d0674e1364736f6c63430008130033",
  "devdoc": {
    "author": "Elyas Sarjoughi",
    "details": "Products are uniquely identified by their product codes and can be associated with tags.      The contract owner can add, remove, and transfer ownership of the contract.",
    "kind": "dev",
    "methods": {},
    "title": "Product Tracker Contract",
    "version": 1
  },
  "userdoc": {
    "kind": "user",
    "methods": {},
    "notice": "This contract allows tracking and management of products.",
    "version": 1
  },
  "storageLayout": {
    "storage": [
      {
        "astId": 18,
        "contract": "contracts/productTracker.sol:productTracker",
        "label": "products",
        "offset": 0,
        "slot": "0",
        "type": "t_mapping(t_uint256,t_struct(Product)13_storage)"
      },
      {
        "astId": 20,
        "contract": "contracts/productTracker.sol:productTracker",
        "label": "productCount",
        "offset": 0,
        "slot": "1",
        "type": "t_uint256"
      },
      {
        "astId": 22,
        "contract": "contracts/productTracker.sol:productTracker",
        "label": "owner",
        "offset": 0,
        "slot": "2",
        "type": "t_address"
      }
    ],
    "types": {
      "t_address": {
        "encoding": "inplace",
        "label": "address",
        "numberOfBytes": "20"
      },
      "t_mapping(t_uint256,t_struct(Product)13_storage)": {
        "encoding": "mapping",
        "key": "t_uint256",
        "label": "mapping(uint256 => struct productTracker.Product)",
        "numberOfBytes": "32",
        "value": "t_struct(Product)13_storage"
      },
      "t_string_storage": {
        "encoding": "bytes",
        "label": "string",
        "numberOfBytes": "32"
      },
      "t_struct(Product)13_storage": {
        "encoding": "inplace",
        "label": "struct productTracker.Product",
        "members": [
          {
            "astId": 4,
            "contract": "contracts/productTracker.sol:productTracker",
            "label": "creator",
            "offset": 0,
            "slot": "0",
            "type": "t_address"
          },
          {
            "astId": 6,
            "contract": "contracts/productTracker.sol:productTracker",
            "label": "productName",
            "offset": 0,
            "slot": "1",
            "type": "t_string_storage"
          },
          {
            "astId": 8,
            "contract": "contracts/productTracker.sol:productTracker",
            "label": "productCode",
            "offset": 0,
            "slot": "2",
            "type": "t_uint256"
          },
          {
            "astId": 10,
            "contract": "contracts/productTracker.sol:productTracker",
            "label": "entryDate",
            "offset": 0,
            "slot": "3",
            "type": "t_uint256"
          },
          {
            "astId": 12,
            "contract": "contracts/productTracker.sol:productTracker",
            "label": "tag",
            "offset": 0,
            "slot": "4",
            "type": "t_string_storage"
          }
        ],
        "numberOfBytes": "160"
      },
      "t_uint256": {
        "encoding": "inplace",
        "label": "uint256",
        "numberOfBytes": "32"
      }
    }
  }
}